:100000000C94DD000C9405010C9405010C94050181
:100010000C9405010C9405010C9405010C94050148
:100020000C9405010C9405010C9405010C94340406
:100030000C9405010C9405010C9405010C94050128
:100040000C94EA030C9405010C94B8030C949203ED
:100050000C9405010C9405010C9405010C94050108
:100060000C9405010C940501808386898C8F9295F0
:10007000989C9FA2A5A8ABAEB0B3B6B9BCBFC1C493
:10008000C7C9CCCED1D3D5D8DADCDEE0E2E4E6E8ED
:10009000EAECEDEFF0F2F3F5F6F7F8F9FAFBFCFC19
:1000A000FDFEFEFFFFFFFFFFFFFFFFFFFFFFFEFE66
:1000B000FDFCFCFBFAF9F8F7F6F5F3F2F0EFEDECE6
:1000C000EAE8E6E4E2E0DEDCDAD8D5D3D1CECCC98A
:1000D000C7C4C1BFBCB9B6B3B0AEABA8A5A29F9C04
:1000E0009895928F8C898683807C797673706D6AFF
:1000F0006763605D5A5754514F4C494643403E3BFD
:10010000383633312E2C2A272523211F1D1B191782
:10011000151312100F0D0C0A090807060504030336
:1001200002010100000000000000000000000101C9
:100130000203030405060708090A0C0D0F10121329
:100140001517191B1D1F212325272A2C2E31333665
:10015000383B3E404346494C4F5154575A5D6063CB
:10016000676A6D707376797C0000000024002700B8
:100170002A0000000000250028002B0004040404CD
:100180000404040402020202020203030303030341
:10019000010204081020408001020408102001021E
:1001A00004081020000000080002010000030407FA
:1001B00000000000000000003E0611241FBECFEF2B
:1001C000D8E0DEBFCDBF11E0A0E0B1E0ECE2F2E1AB
:1001D00002C005900D92A436B107D9F723E0A4E63A
:1001E000B1E001C01D92A331B207E1F710E0CDEDFF
:1001F000D0E004C02197FE010E94D206CC3DD10779
:10020000C9F70E9486040C9414090C940000EEEACD
:10021000F1E02491EAE9F1E09491E6E8F1E0E4917B
:10022000EE23C9F0222339F0233001F1A8F4213064
:1002300019F1223029F1F0E0EE0FFF1FEE58FE4FCA
:10024000A591B4912FB7F894EC91811126C09095A7
:100250009E239C932FBF08952730A9F02830C9F022
:10026000243049F7209180002F7D03C02091800029
:100270002F7720938000DFCF24B52F7724BDDBCFED
:1002800024B52F7DFBCF2091B0002F772093B000B5
:10029000D2CF2091B0002F7DF9CF9E2BDACF90E006
:1002A000FC01E057FE4F249184589E4FFC0184913D
:1002B000882399F090E0880F991FFC01E859FE4FC0
:1002C000A591B491FC01EE58FE4F859194918FB7A2
:1002D000F894EC91E22BEC938FBF0895AF92BF920C
:1002E000CF92DF92EF92FF920F931F93CF93DF9302
:1002F0006C017B018B01040F151FEB015E01AE1831
:10030000BF08C017D10759F06991D601ED91FC9152
:100310000190F081E02DC6010995892B79F7C5017F
:10032000DF91CF911F910F91FF90EF90DF90CF90D1
:10033000BF90AF900895FC01538D448D252F30E080
:10034000842F90E0821B930B541710F0CF960895E2
:1003500001970895FC01918D828D981761F0A28D0F
:10036000AE0FBF2FB11D5D968C91928D9F5F9F73D5
:10037000928F90E008958FEF9FEF0895FC01918D8B
:10038000828D981731F0828DE80FF11D858D90E0F8
:1003900008958FEF9FEF0895FC01918D228D892F95
:1003A00090E0805C9F4F821B91098F73992708957D
:1003B00082E792E00E94CC0121E0892B09F420E041
:1003C000822F089580E090E0892B29F00E94D801C7
:1003D00081110C9400000895FC01A48DA80FB92F81
:1003E000B11DA35ABF4F2C91848D90E001968F735D
:1003F0009927848FA689B7892C93A089B1898C917C
:10040000837080648C93938D848D981306C00288CA
:10041000F389E02D80818F7D80830895EF92FF9294
:100420000F931F93CF93DF93EC0181E0888F9B8D17
:100430008C8D98131AC0E889F989808185FF15C0D1
:100440009FB7F894EE89FF896083E889F9898081F4
:100450008370806480839FBF81E090E0DF91CF91C3
:100460001F910F91FF90EF900895F62E0B8D10E0E5
:100470000F5F1F4F0F731127E02E8C8D8E110CC054
:100480000FB607FCFACFE889F989808185FFF5CF9F
:10049000CE010E94EC01F1CFEB8DEC0FFD2FF11D91
:1004A000E35AFF4FF0829FB7F8940B8FEA89FB89DC
:1004B00080818062CFCFCF93DF93EC01888D88233A
:1004C000B9F0AA89BB89E889F9898C9185FD03C0B7
:1004D000808186FD0DC00FB607FCF7CF8C9185FF9C
:1004E000F2CF808185FFEDCFCE010E94EC01E9CFF4
:1004F000DF91CF9108953FB7F89480916D0290916C
:100500006E02A0916F02B091700226B5A89B05C043
:100510002F3F19F00196A11DB11D3FBFBA2FA92F82
:10052000982F8827BC01CD01620F711D811D911D7F
:1005300042E0660F771F881F991F4A95D1F70895EB
:100540008F929F92AF92BF92CF92DF92EF92FF92E3
:100550004B015C010E947B026B017C010E947B02CB
:100560006C197D098E099F09683E734081059105CC
:10057000A8F321E0821A9108A108B10888EEC80EFC
:1005800083E0D81EE11CF11C81149104A104B10484
:1005900029F7FF90EF90DF90CF90BF90AF909F90A2
:1005A0008F90089520916702222349F0F8942091BA
:1005B0006F002D7F20936F00789410926702823035
:1005C000910509F46FC08330910509F47EC001974D
:1005D00009F45DC0E8E6F0E0A7E6B1E084918D9310
:1005E000319622E0A736B207C9F7809171028111D6
:1005F00043C08091B6008F798093B6008091B0009F
:1006000083608093B0008091B100877F8093B100B8
:100610008091B0008F7B80688093B0008091B000A3
:100620008F7C8093B0008091B100887F816080933F
:10063000B1001092B300F89480918100877E8860A9
:1006400080938100809180008C7F809380008091D6
:100650008100887F81608093810080E092E09093A8
:1006600089008093880080916F00826080936F0082
:10067000789481E080937102F89480916F00826099
:1006800080936F00789481E0809367020895E7E695
:10069000F1E090E080E081930196811521E09207DE
:1006A000D1F7A3CFE7E6F1E080E081938E5F91E0A0
:1006B000E73EF907D1F7E7EEF1E08FEF90E08193A5
:1006C00002978F3F9807D9F790CF87EE91E0E7E642
:1006D000F1E02FEF21938E179F07E1F7E7EEF1E0AE
:1006E000119282E0E736F807D9F77FCFFC0101903D
:1006F0000020E9F73197AF01481B590BBC0182E795
:1007000092E00C946E01009751F0FB0101900020E3
:10071000E9F731976E177F0711F00C94C30890E04A
:1007200080E008951F920F920FB60F9211242F931D
:100730003F934F935F936F937F938F939F93AF9369
:10074000BF93EF93FF9382E792E00E94EC01FF9149
:10075000EF91BF91AF919F918F917F916F915F9139
:100760004F913F912F910F900FBE0F901F901895B2
:100770001F920F920FB60F9211242F938F939F9376
:10078000EF93FF93E0918202F09183028081E091E8
:100790008802F091890282FD1BC0908180918B02BA
:1007A0008F5F8F7320918C02821741F0E0918B0252
:1007B000F0E0EE58FD4F958F80938B02FF91EF9103
:1007C0009F918F912F910F900FBE0F901F901895B2
:1007D0008081F4CF1F920F920FB60F9211242F93A6
:1007E0003F938F939F93AF93BF93809169029091B2
:1007F0006A02A0916B02B0916C023091680223E012
:10080000230F2D3758F50196A11DB11D20936802C5
:100810008093690290936A02A0936B02B0936C027A
:1008200080916D0290916E02A0916F02B091700262
:100830000196A11DB11D80936D0290936E02A0934D
:100840006F02B0937002BF91AF919F918F913F91D2
:100850002F910F900FBE0F901F90189526E8230F31
:100860000296A11DB11DD2CF1F920F920FB60F920B
:1008700011242F933F934F935F936F937F938F93A5
:100880009F93AF93BF93EF93FF9380910201909159
:1008900003010197C9F480917102882331F12091FD
:1008A000650130916601E32FFF27E959FE4F408132
:1008B0008091000190910101820F931F9093660136
:1008C000809365014093B300FF91EF91BF91AF9189
:1008D0009F918F917F916F915F914F913F912F9158
:1008E0000F900FBE0F901F90189580916401882380
:1008F00031F081E00E94070110926401E5CF80E0B1
:100900000E94070181E080936401DECFCF93DF93E3
:10091000CDB7DEB72A970FB6F894DEBF0FBECDBFB6
:10092000789484B5826084BD84B5816084BD85B5CA
:10093000826085BD85B5816085BD80916E008160D6
:1009400080936E001092810080918100826080937C
:10095000810080918100816080938100809180007E
:100960008160809380008091B10084608093B100A9
:100970008091B00081608093B00080917A008460A3
:1009800080937A0080917A00826080937A008091CF
:100990007A00816080937A0080917A0080688093E9
:1009A0007A001092C100E0918202F091830282E00D
:1009B0008083E0917E02F0917F021082E0918002BC
:1009C000F09181028FEC808310928A02E09186027E
:1009D000F091870286E08083E0918402F0918502A5
:1009E000808180618083E0918402F0918502808122
:1009F00088608083E0918402F09185028081806824
:100A00008083E0918402F091850280818F7D8083D4
:100A100064E670E080E090E00E94A0028AE00E941C
:100A20004F018BE00E944F018CE191E00E94760320
:100A300083E391E00E94760390E080E00E94D2027E
:100A40003AE0232E9E012F5F3F4F7901412C44E273
:100A5000542E44EF642E712C52E1852E5AE7952EC8
:100A6000A12CB12C82E792E00E94CC011816190645
:100A70000CF07DC0D12CC12C10E000E082E792E0A8
:100A80000E94CC011816190694F582E792E00E94A4
:100A9000AA01382E3AE0831719F18DE0381601F1DA
:100AA00094E73916E9F0B6016E5F7F4FC8010E94E6
:100AB000FD078C01009761F486E391E00E947603C4
:100AC00083E391E00E94760381E090E00E941409A4
:100AD000FC01EC0DFD1D30821182EFEFCE1ADE0A13
:100AE0006AE070E080E090E00E94A002C7CF0115AC
:100AF0001105E9F164E471E0C8010E94C308892B83
:100B000099F18EE491E00E94760367E471E0C801F8
:100B10000E948303892BC1F1F80101900020E9F7BD
:100B200031979F01201B310BF701822D11928A957D
:100B3000E9F7F80190E080E0AF01401B510B42174C
:100B400053075CF4419150ED540F5A30A8F7D70188
:100B5000A80FB91F4C930196EFCFC7010E946B06F7
:100B60009093030180930201C8010E94740780E002
:100B700090E0892B09F476CF0E94D801882309F4EC
:100B800071CF0E9400006ECF6BE471E0C8010E943B
:100B90008303892B29F090E080E00E94D202E4CF09
:100BA00060E571E0C8010E948303892B19F082E09F
:100BB00090E0F3CF65E571E0C8010E948303892BC3
:100BC00019F081E090E0E9CF6AE571E0C8010E9488
:100BD00083036C0183E090E0C114D104F1F66FE56A
:100BE00071E0C8010E948303892B09F4BDCFF8018D
:100BF00001900020E9F73197CF01801B910BF7019D
:100C0000222D11922A95E9F7F8019F01201B310B43
:100C10002817390774F4219130ED320F3A30A8F7D4
:100C2000D701AC0DBD1D2C9396012F5F3F4F69017D
:100C3000ECCFC7010E946B06BC0180917102882332
:100C400071F090E080E0CB0177276627A501940141
:100C50000E949106309301012093000185CFF89402
:100C6000660F771F9B0150E040E0C301B2010E9474
:100C7000B306309389002093880076CFE2E7F2E054
:100C80001382128288EE93E0A0E0B0E08483958323
:100C9000A683B7838EE091E09183808385EC90E01A
:100CA0009587848784EC90E09787868780EC90E036
:100CB000918B808B81EC90E0938B828B82EC90E027
:100CC000958B848B86EC90E0978B868B118E128EA1
:100CD000138E148E0895FC0188279927E89421919A
:100CE0002032E9F3293010F02E30C8F32B3241F0D6
:100CF0002D3239F4689404C00E948906820F911D38
:100D0000219120532A30C0F31EF4909581959F4F76
:100D100008957AE0979F902D879F802D910D112443
:100D20000895A1E21A2EAA1BBB1BFD010DC0AA1F2C
:100D3000BB1FEE1FFF1FA217B307E407F50720F044
:100D4000A21BB30BE40BF50B661F771F881F991FBF
:100D50001A9469F760957095809590959B01AC0108
:100D6000BD01CF010895052E97FB1EF400940E944B
:100D7000CA0657FD07D00E94910607FC03D04EF427
:100D80000C94CA0650954095309521953F4F4F4F92
:100D90005F4F089590958095709561957F4F8F4F27
:100DA0009F4F0895EE0FFF1F0590F491E02D0994D9
:100DB0000F931F93CF93DF938230910510F482E05D
:100DC00090E0E0911103F091120330E020E0B0E0F8
:100DD000A0E0309799F42115310509F44AC0281B89
:100DE000390B24303105D8F58A819B816115710555
:100DF00089F1FB0193838283FE0111C040815181FF
:100E00000281138148175907E0F04817590799F4F0
:100E1000109761F012960C93129713961C933296CA
:100E2000CF01DF91CF911F910F910895009311038E
:100E300010931203F4CF2115310551F042175307D7
:100E400038F0A901DB019A01BD01DF01F801C1CF32
:100E5000EF01F9CF9093120380931103CDCFFE01E0
:100E6000E20FF31F81939193225031093983288334
:100E7000D7CF20910F0330911003232B41F4209101
:100E80000601309107013093100320930F03209146
:100E90000401309105012115310541F42DB73EB70C
:100EA0004091080150910901241B350BE0910F037B
:100EB000F0911003E217F307A0F42E1B3F0B281745
:100EC000390778F0AC014E5F5F4F2417350748F0C3
:100ED0004E0F5F1F5093100340930F038193919324
:100EE0009FCFF0E0E0E09CCFCF93DF930097E9F055
:100EF000FC01329713821282A0911103B091120368
:100F0000ED0130E020E01097A1F420813181820FC3
:100F1000931F20910F03309110032817390709F010
:100F200061C0F0931003E0930F03DF91CF91089518
:100F3000EA01CE17DF07E8F54A815B819E01411582
:100F40005105B1F7E901FB83EA8349915991C40F37
:100F5000D51FEC17FD0761F4808191810296840F03
:100F6000951FE90199838883828193819B838A837A
:100F7000F0E0E0E012968D919C9113970097B9F5FF
:100F80002D913C911197CD010296820F931F2091D4
:100F90000F03309110032817390739F6309751F5B0
:100FA0001092120310921103B0931003A0930F0339
:100FB000BCCFD383C28340815181840F951FC81752
:100FC000D90761F44E5F5F4F88819981480F591F9F
:100FD000518340838A819B819383828321153105CC
:100FE00009F0B0CFF0931203E09311039ECFFD01FF
:100FF000DC01C0CF13821282D7CFB0E0A0E0E3E0E3
:10100000F8E00C94DF088C01009751F4CB010E94AA
:10101000D8068C01C801CDB7DEB7E0E10C94FB081F
:10102000FC01E60FF71F9C0122503109E217F3077C
:1010300008F49DC0D901CD91DC911197C617D7074F
:1010400098F0C530D10530F3CE0104978617970785
:1010500008F3C61BD70B2297C193D1936D937C9352
:10106000CF010E947407D6CF5B01AC1ABD0A4C01B8
:101070008C0E9D1EA0911103B0911203512C412C96
:10108000F12CE12C109731F580910F039091100312
:101090008815990509F05CC04616570608F058C037
:1010A0008091040190910501009741F48DB79EB79E
:1010B0004091080150910901841B950BE817F9072D
:1010C00008F055C0F0931003E0930F03F90171830A
:1010D0006083A0CF8D919C91119712966C9012977E
:1010E00013967C901397A815B90559F56C0142E049
:1010F000C40ED11CCA14DB0420F1AC014A195B09EF
:10110000DA011296159780F06282738251834083D0
:10111000D9016D937C93E114F10471F0D70113961A
:10112000FC93EE93129776CF22968C0F9D1FF901B8
:1011300091838083F301EFCFF0931203E0931103C7
:1011400069CF4816590608F42C017D01D3019ACFC6
:10115000CB010E94D8067C01009749F0AE01B8018E
:101160000E94BA08C8010E947407870153CF10E09B
:1011700000E050CFFB01DC0102C001900D92415014
:101180005040D8F70895FB0151915523A9F0BF01B4
:10119000DC014D9145174111E1F759F4CD01019062
:1011A000002049F04D9140154111C9F3FB01411157
:1011B000EFCF81E090E0019708952F923F924F92F8
:1011C0005F926F927F928F929F92AF92BF92CF92D7
:1011D000DF92EF92FF920F931F93CF93DF93CDB7E0
:1011E000DEB7CA1BDB0B0FB6F894DEBF0FBECDBF58
:1011F00009942A88398848885F846E847D848C8429
:101200009B84AA84B984C884DF80EE80FD800C8131
:101210001B81AA81B981CE0FD11D0FB6F894DEBF14
:0C1220000FBECDBFED010895F894FFCF84
:10122C0064000100000013038000000000000E02A7
:10123C006E019B015B02CC01AA01BE015665726274
:10124C00756D2057617665202D20737461727465FD
:10125C006421000D0A004D656D6F72792065727204
:10126C006F722E00633A00633A6F00633A77310075
:10127C00633A773200633A773300633A773400632A
:04128C003A660000BE
:00000001FF
